:020000040800F2
:10000000000000008D00000800F002F800F02EF85B
:100010000AA090E8000C82448344AAF10107DA4563
:1000200001D100F023F8AFF2090EBAE80F0013F087
:10003000010F18BFFB1A43F001031847AC01000081
:10004000BC0100000023002400250026103A28BF30
:1000500078C1FBD8520728BF30C148BF0B6070473A
:100060001FB500F0BBF81FBD10B510BD00F038F88B
:100070001146FFF7F5FF00F08BF800F056F803B4D7
:10008000FFF7F2FF03BC00F077F800000F480168AB
:1000900041F0200101600E48016841F480210160B7
:1000A0000C48016841F4402101600B494FF0007099
:1000B00008600A4800F007F84FF40070086007482D
:1000C00000F001F8F2E7401EFDD1F746303802405B
:1000D000001402400814024018140240FFFF0F00F1
:1000E000754600F02BF8AE4605006946534620F0F1
:1000F0000700854618B020B500F024F8BDE8204080
:100100004FF000064FF000074FF000084FF0000BD3
:1001100021F00701AC46ACE8C009ACE8C009ACE886
:10012000C009ACE8C0098D46704710B50446AFF36E
:1001300000802046BDE81040FFF7A1BF004870478F
:100140000000002000B54FF0160085B0694601AAF6
:100150000A60ABBE0198002802BF0548C01D20F010
:1001600007000399029A049B05B000BD0900000036
:10017000000000007047000001491820ABBEFEE7F8
:100180002600020000BF411E081EFCD1704700007F
:100190000F4A106840F0200010600E4A106840F4CA
:1001A000802010600B4A0832106840F44020106034
:1001B000084A18320BE04FF0007010600648FFF755
:1001C000E1FF4FF4007010600348FFF7DBFFF2E738
:1001D0003038024000140240FFFF0F004FF0407023
:1001E000E1EE100A70470000F8010008000000204E
:0801F00060000000440000085B
:0400000508000009E6
:00000001FF
